:1000000000800120D1120000611100000F130000D8
:10001000111300001313000015130000000000006E
:1000200000000000000000000000000017130000A6
:1000300019130000000000001B130000F915000058
:100040001F130000211300002313000025130000DC
:1000500027130000291300002B1300002D130000AC
:100060002F1300003113000033130000351300007C
:1000700037130000391300003B1300003D1300004C
:100080003F1300004113000043130000451300001C
:1000900047130000491300004B1300004D130000EC
:1000A000C912000051130000531300005513000043
:1000B00057130000591300005B1300005D1300008C
:1000C0005F1300006113000063130000651300005C
:1000D00067130000691300006B1300006D1300002C
:1000E0006F130000711300007313000075130000FC
:1000F00077130000791300007B1300007D130000CC
:100100007F1300008113000083130000851300009B
:1001100087130000891300008B13000010B5054CF5
:10012000237833B9044B13B10448AFF300800123A3
:10013000237010BD2C0A002000000000B8A00000B1
:1001400008B5034B1BB103490348AFF3008008BD5A
:1001500000000000300A0020B8A00000014B01227E
:100160001A707047480A0020012100F027BB0000E8
:100170002DE9F041C2B000258DF8065000F0A0F93D
:100180000446654801F066FAA4B1644A64496548CA
:10019000772301F0A5FF634800F0B2F9624A2346D5
:1001A0006249604801F09CFF5E4800F0C9F90020F8
:1001B00001F064FE5E49022302A80B6000F0EEFA33
:1001C00008BB0DF1070102A800F016FB9DF80730EF
:1001D00054485B074CBF5749574901F0A3FF5148AA
:1001E00000F0AEF902A8FFF7BFFF044670B14B4A1A
:1001F0004B494C489D2301F073FF4A4800F080F9B9
:100200004E4A2346CCE700F03BF9FCE74C494FF45B
:10021000023202A800F0DEFA054658B13F4A4049D2
:100220004048A12301F05CFF3E4800F069F9454ACF
:100230002B46B5E702A800F0C7FA044658B1374A82
:1002400037493848A52301F04BFF364800F058F9EC
:100250003D4A2346A4E70DF1060102A800F0C6FAC4
:10026000054658B12D4A2E492E48A92301F038FFE2
:100270002C4800F045F9354A2B4691E700F015FF70
:100280000446002842D000F0FBF8FCE7304801F0BB
:1002900013FF0DF1060000F0F5FE9DF80630B342A5
:1002A00009D063B3012B2FD003A9284601F018FF12
:1002B000284600F045F99DF8066000F0DBF80DF1E6
:1002C000060102A800F092FA0228DFD00028E0D14F
:1002D0009DF80630A3420DD07BB1012B03D14146DE
:1002E00003A801F01FFF03A9284601F0F9FE2846E4
:1002F00000F026F99DF80640CBE73946F0E71549AE
:1003000003A801F00FFFCFE71349F9E7054D134F9D
:10031000DFF84C800646D2E760E31600489B0000F9
:100320004F9B0000500B0020569B0000659B000077
:1003300000000020859B0000A79B0000CF9B0000D1
:100340005D010000DC9B0000F69B0000159C000096
:100350002C9C00006D9C0000809C0000589C0000BC
:10036000459C0000224870B5224C234D01260823ED
:100370000681C0E9005301F04AFA04232681204691
:100380006360256001F043FAD4E900011B4C01F0E1
:1003900034FA2023636040F2012323812046256044
:1003A00001F035FAD4E90001154C01F024FA4FF4BC
:1003B0008073268120466360256001F028FAD4E925
:1003C000000101F018FA42F2107001F043F9D4E98B
:1003D000000101F012FA42F2107001F03BF9D4E989
:1003E000000101F008FABDE87040064801F032B99A
:1003F0002C0B0020E80B002000800040380B002070
:10040000440B0020A086010008B5064B0246D3E944
:1004100000011AB101F0EFF9002008BD01F0EDF97B
:10042000FAE700BFE80B002008B5044BD3E9000150
:1004300001F0DFF9C0F3C00008BD00BF2C0B0020A5
:100440000346034803B10123037201F0E0B900BF82
:100450002C0B002008B5064B0246D3E900011AB167
:1004600001F0C9F9002008BD01F0C7F9FAE700BFA3
:100470002C0B00200148202101F0BFB90080004072
:1004800010B5084C2021204601F0B7F9064801F0CC
:10049000E1F82046202101F0AEF9BDE81040034804
:1004A00001F0D8B800800040801A0600A086010044
:1004B000024800224FF4E13101F028BA0030044034
:1004C00008B5FFF7F5FF08B9FFF74CFF002008BD9E
:1004D00007B5019101AA0146034801F05FFA002027
:1004E00003B05DF804FB00BF0030044010B50446C3
:1004F00001F086FE01462046BDE81040FFF7E8BF48
:100500001FB50D4A044651681068127A01AB03C347
:100510001A700A4B01A81A889B78ADF800208DF854
:100520000230FFF7E3FF2046FFF7E0FF6846FFF7E2
:10053000DDFF04B010BD00BF919C0000829B000055
:1005400007B5074B1A889B78ADF804208DF8063064
:10055000FFF7CCFF01A8FFF7C9FF03B05DF804FB6C
:10056000829B0000F8B505460E4600244FF0004778
:1005700027FA04F0284018BF0120FFF76BFF012085
:10058000FFF742FF01340020FFF73EFFA642EFD104
:10059000F8BD70B50646002015460C46FFF750FF23
:1005A0000120FFF74DFF0120FFF74AFFA4002021A3
:1005B0004FF0FF30FFF7D6FF04F07C04C6F3430092
:1005C00045EA006544EAC61040F00203DBB245EAA2
:1005D00003402021FFF7C6FF0020FFF731FF002076
:1005E00070BD38B50020FFF70FFFFFF71DFF102586
:1005F00004460120FFF708FF0020FFF705FFFFF783
:1006000013FF6400013D44EA0004F2D10120FFF72A
:10061000FBFE2846FFF7F8FEC4F3100038BD70B5A6
:100620000546012016460C46FFF70AFF20214FF031
:10063000FF30FFF797FFA30003F07C0343EAC513E5
:10064000C5F3430043F0030340F06000DBB2000653
:1006500040EA03406FEA90300F216FEA8030FFF7E5
:1006600081FF0020FFF7ECFEFFF7BBFF3080C0F3F7
:10067000004070BD70B516460D0C8AB2C1F307413B
:100680000446FFF786FF0120FFF7DAFE20214FF036
:10069000FF30FFF767FFAB0003F07C0343EAC413AE
:1006A000C4F3430043F0030340F03000DBB2000624
:1006B00040EA03406FEA90300F216FEA8030FFF785
:1006C00051FF0020FFF7BCFEFFF78BFF3080C0F327
:1006D000004070BDC9B2FFF7A2BF70B5064600204A
:1006E00015460C46FFF7ACFE0120FFF7A9FE0120DE
:1006F000FFF7A6FE20214FF0FF30FFF733FFA400E5
:10070000C6F3430040F0500004F07C0445EA006565
:1007100044EAC61040F00203DBB245EA0340202160
:10072000FFF720FF0020FFF78BFE002070BD70B5A3
:1007300015460C0C8AB2C1F307410646FFF729FFA4
:100740000020FFF77DFEA4000120FFF779FE04F0F2
:100750007C0420214FF0FF30FFF704FFC6F3430075
:1007600044EAC61340F0100043F00203DBB245EA4E
:10077000006040EA03402021FFF7F4FE002070BD36
:10078000FFF778BFFFF7D3BFFFF7A4BFFFF7A5BF01
:10079000002070470020704701207047044B054A35
:1007A00010B41C68044BA4465DF8044B604700BFBE
:1007B000100000208107000085070000014B006841
:1007C0005B6A184710000020014B00689B691847BE
:1007D000100000200346044810B4C4681868A446FA
:1007E0005DF8044B604700BF10000020014B00681B
:1007F0001B6A184710000020014B00689B6C1847CB
:1008000010000020012380F8243043691BB100222E
:10081000C06911461847704710B5044648B1FFF744
:10082000B7FF10220021204601F0F6FB00200071E6
:1008300010BD0A20FCE713B50446CDE90021FFF7FF
:10084000A7FFE3682078DDE90021984700280CBF66
:1008500000240224FFF79EFF204602B010BD0000D6
:1008600038B542F40064C0E905120546A2B2054954
:10087000C361FFF7E0FF220C28460349BDE838407A
:10088000FFF7D9BF20001E0021001E0090F8243081
:1008900043B9002918BF4FF48052034908BF002212
:1008A000FFF7C9BF0B207047000207000A46014945
:1008B000FFF7C1BF818C1E0013B50446CDE90021AE
:1008C000FFF766FFA3682078DDE90021984700283C
:1008D0000CBF00240224FFF75DFF204602B010BDCC
:1008E00073B500260C460E600DF106020F49054651
:1008F000FFF7E2FFB8B9BDF8063023600DF106023C
:100900000B492846FFF7D8FF2368BDF8062043EAC5
:1009100002432360AA6985F82460002803EA0203E1
:1009200018BF0320236002B070BD00BF10001E007E
:1009300011001E0073B50C460DF106022449054650
:10094000FFF7BAFF40BBBDF80630C3F34012227078
:1009500012B3C3F380031F4963700DF106022846EA
:10096000FFF7AAFFC0B9BDF80620C2F34113022B5E
:1009700004D0032B02D0012B18BF03461649A370E5
:100980000DF106022846FFF797FF28B9BDF806606B
:10099000B10403D40020E07002B070BD0F490DF126
:1009A00006022846FFF788FF0028F5D10C490DF113
:1009B00006022846FFF780FF0028EDD1BDF806307B
:1009C0009A04E7D51E43F304E4D50123E370E3E77B
:1009D000010207000180070004020700050207006A
:1009E0000702070037B50D460DF1020233490446F0
:1009F000FFF762FF002842D1BDF80230304923F0F2
:100A0000050301AA2046ADF80230FFF755FF002884
:100A100035D1BDF804302B4923F480430DF1060293
:100A20002046ADF80430FFF747FF40BBBDF8063065
:100A300023F001039BB2ADF80630062D3CD8DFE869
:100A400005F00A0420252C313600BDF8043043F4AB
:100A50008043ADF80430BDF8022018492046FFF766
:100A6000EAFE60B9BDF8042015492046FFF7E3FE11
:100A700028B9BDF8062013492046FFF7DCFE03B075
:100A800030BD43F00103ADF80630E4E7BDF80230B5
:100A900043F00103ADF80230DDE7BDF8023043F06A
:100AA0000303F7E7BDF8023043F00403F2E7BDF8B3
:100AB000023043F00C03EDE70820E0E73D801E0024
:100AC000E6080300F608010090F8243023B9034932
:100AD0004FF49052FFF7AFBE0B20704700020700A3
:100AE000FF2907D8FF2A05D842EA012292B202491B
:100AF000FFF7A1BE08207047818C1E0090F82430BB
:100B000037B504460D46F3B910490DF10602FFF75B
:100B1000D3FE78B9BDF806306A1E23F44053012A8B
:100B20009BB209D9ADF80630BDF80620074920462A
:100B3000FFF781FE03B030BD012D14BF43F4805395
:100B400043F44053EEE70B20F4E700BF0402070034
:100B500090F8243037B504460D4693BB1A490DF181
:100B60000602FFF7A9FE50BBBDF80630164923F474
:100B700080539BB2012D98BF43F48053ADF80630EB
:100B8000BDF806202046FFF756FEC0B90F490DF10B
:100B900006022046FFF790FE88B9BDF806300B49E3
:100BA00023F010039BB215F0FD0F08BF43F01003B4
:100BB000ADF80630BDF806202046FFF73CFE03B036
:100BC00030BD0B20FBE700BF020207000302070055
:100BD00090F8243013B50C46B3B90B700DF1060232
:100BE0000A49FFF769FE68B9BDF80620D10442BF83
:100BF000237843F004032370930403D5237843F050
:100C00001003237002B010BD0B20FBE7F7080100B2
:100C100090F8243013B50C4683B90949ADF8063075
:100C20000DF10602FFF748FE30B9BDF80630C3F3F8
:100C30004003237002B010BD0220FBE70B20F9E750
:100C400018881E0073B50023924E037104464FF4BA
:100C500048750DF1060231462046FFF72DFE0228A9
:100C600003D1013DF5D105236CE00028FBD1894972
:100C70000DF106022046FFF71FFE0028F3D1BDF854
:100C8000062040F283239A4201D00520EBE78249F7
:100C90000DF106022046FFF70FFE0028E3D1BDF854
:100CA000065005F47C43B3F53C4FEED101227B495D
:100CB000ADF806202046FFF7BEFD00284BD14FF4CB
:100CC000AF560DF105012046FFF7A2FF002842D1E3
:100CD0009DF805300BB9013EF3D1A669704946F481
:100CE0000066B2B22046FFF7A6FD6E49320C2046E0
:100CF000FFF7A1FD6C490DF106022046FFF7DCFD70
:100D00006A490DF106022046FFF7D6FD002384F85C
:100D100024302B0718D001212046FFF7B7FDD0B9AA
:100D200063494FF47F422046FFF785FD61494DF24C
:100D300080022046FFF77FFD5F490A222046FFF729
:100D40007AFD0223237106E05C4901222046FFF769
:100D500072FD10B11B2002B070BDC5F305150A2D40
:100D60000CBF012243F2366255492046FFF763FD6E
:100D70000028EFD1024653492046FFF75CFD0028CA
:100D8000E8D15149F9222046FFF755FD0028E1D16D
:100D90004E490B222046FFF74EFD0028DAD14C4980
:100DA00003222046FFF747FD0028D3D149490822F6
:100DB0002046FFF740FD0028CCD147494FF40052B0
:100DC0002046FFF738FD0028C4D1444908222046B8
:100DD000FFF731FD0028BDD141494FF48062204624
:100DE000FFF729FD0028B5D13E494FF400522046B7
:100DF000FFF721FD0028ADD13B4908222046FFF72F
:100E00001AFD0028A6D139494FF480622046FFF729
:100E100012FD00289ED136494FF480622046FFF72C
:100E20000AFD002896D133494FF480622046FFF72F
:100E300002FD00288ED130494FF480622046FFF732
:100E4000FAFC002886D12D494FF480622046FFF736
:100E5000F2FC00287FF47EAF29494FF480622046DF
:100E6000FFF7E9FC00287FF475AF0A2D7FF453AF3C
:100E7000244901222046FFF7DEFC00287FF46AAFF8
:100E8000214901222046FFF7D6FC00283FF443AF5A
:100E900060E700BF02001E0003001E0012881E0053
:100EA00020001E0021001E0010001E0011001E0068
:100EB000568C1E00828C1E00838C1E00818C1E00AE
:100EC000808C1E001F881E0054810100408C1E0073
:100ED000088001000980010067810100688101002C
:100EE0006B810100BD810100BE810100C281010052
:100EF000DB810100E1810100E7810100EB8101005C
:100F00004381010000A41E0007A41E00FFF79ABE43
:100F10002DE9F04117468A682B2A80460D461E4669
:100F200027D90021686801F077F86C682B68C8F849
:100F3000004000212360C4E90276C4E9051184F869
:100F40002410FFF725FC2B7B1BB10B482146FFF734
:100F500023FC2046FFF776FE064620B105232371C9
:100F60003046BDE8F0812B7B002BF9D0FFF712FC57
:100F7000F6E70826F4E700BF0508000090F82430E3
:100F800010B5044653B959B907490122FFF753FC7C
:100F900040B92046BDE81040FFF754BE0B2010BDFD
:100FA0001A20FCE70220FAE710881E0090F824308F
:100FB00037B504460D468BBB0B700DF10602184980
:100FC000FFF77AFC28B9BDF806305B0703D501238B
:100FD0002B7003B030BDA36A114901330DF1060235
:100FE000A3622046FFF768FC0E490DF10602204679
:100FF000FFF762FC0028ECD1BDF806300949C3F3C5
:1010000080030DF106022B702046FFF755FC0649C0
:101010000DF106022046FFF74FFCDAE70B20D8E778
:101020000102070004020700828C1E0090F82430A1
:1010300073B504460D46B3B90A460E49FFF7FBFBEC
:1010400060B90A260DF107012046FFF7E1FD9DF882
:101050000730AB4209D0013EF4D10C2002B070BD84
:1010600002232371FAE70B20F8E7002DF8D10323C0
:10107000F7E700BF12881E000121FFF7D7BF00214C
:10108000FFF7D4BF37B5044600250DF106021A213B
:101090000820ADF80650FFF777FBBDF8063028466C
:1010A000C3F38013237003B030BD13B54FF48062D7
:1010B000162100240820ADF80640FFF767FB0DF16C
:1010C000060216210820FFF75FFBBDF80630B3F5D6
:1010D000806F19D1412204210820FFF757FB4FF4FC
:1010E000985221460820FFF751FB40F201421B2194
:1010F0000820FFF74BFB42F209121C210820FFF7E2
:1011000045FBC0B202B010BD0720FBE708B503469F
:10111000014800F0D1FFFEE79A9C0000034B00223B
:1011200018684FF4E13100F0F1BB00BF640000200B
:1011300008B5FFF7F3FF00280CDB00F0A9F820B199
:10114000542205490548FFF7E1FF00F081F808B196
:101150005922F6E708BD00BFB39C0000F19C0000D7
:1011600000BF70474FF0FF3070474FF0FF307047BF
:101170004FF0FF3070474FF0FF3070472DE9F041DE
:1011800016460446C0B9104F0D46B442A84610DAC0
:10119000384600F0FFFBC1B22970384600F0FCFB76
:1011A00015F8013B0D2B04F10104EED10A2388F858
:1011B00000302046BDE8F08100F05AFE09230360AC
:1011C0004FF0FF34F5E700BF00300440013801283C
:1011D00038B518D900F04CFE092303604FF0FF32F8
:1011E0000FE01C780A2C03D184682406FCD4C56166
:1011F00084682406FCD413F8014BC4615C1A944241
:10120000EFDB104638BD02480B460D25F6E700BF60
:10121000003004400A4B1B68834210B5044604D8D2
:10122000084909484822FFF771FF084A0C2303FBCD
:1012300004F01318BDE810405968105800F0DDBAEA
:10124000049D0000189D0000579D0000F89C0000C0
:10125000F7B50D4B0D4E1B680193002425460C2756
:10126000019BA34202D8284603B0F0BD2046FFF7F9
:10127000D1FF07FB046000F0CAFA002818BF6FF026
:1012800007050134ECE700BF049D0000F89C000056
:10129000F7B50B4B0B4E1B680193002425460C271A
:1012A000019BA34202D8284603B0F0BD07FB0460AF
:1012B00000F0ADFA002818BF6FF007050134EFE722
:1012C000089D00000C9D0000002000F098BA00006E
:1012D0002E4885462E48804780B92E492E4A2F4BEE
:1012E0009B1A03DD043BC858D050FBDC2C492D4A27
:1012F00000209142BCBF41F8040BFAE72A4880471E
:101300002A4880472A488047FFF7FEFFFEE7FEE7AE
:10131000FEE7FEE7FEE7FEE7FEE7FEE7FEE7FEE7A5
:10132000FEE7FEE7FEE7FEE7FEE7FEE7FEE7FEE795
:10133000FEE7FEE7FEE7FEE7FEE7FEE7FEE7FEE785
:10134000FEE7FEE7FEE7FEE7FEE7FEE7FEE7FEE775
:10135000FEE7FEE7FEE7FEE7FEE7FEE7FEE7FEE765
:10136000FEE7FEE7FEE7FEE7FEE7FEE7FEE7FEE755
:10137000FEE7FEE7FEE7FEE7FEE7FEE7FEE7FEE745
:10138000FEE7FEE7FEE7FEE7FEE7FEE7008001205E
:101390004D140000C4A00000000000202C0A002012
:1013A0002C0A00201C0C0020511400009D1E00007F
:1013B0007101000008B50A4B1968024609B90949CC
:1013C00019601868084902448A4206D900F050FDA5
:1013D0000C2303604FF0FF3008BD1A60FCE700BF2C
:1013E0004C0A0020200C0020007001204FF08043A8
:1013F0009B6803F46063B3F5406F15D0B3F5C06F1D
:1014000015D00D4B1A6812F0300213D00B4B0C495B
:10141000102A18BF0B464FF080429268C2F3821226
:10142000D340084A136070474FF40043F3E74FF48A
:10143000FA53F0E7044BEEE700680040006CDC0272
:1014400000D8B8056800002000366E010020704703
:1014500008B51B4B1B491C4A9A600A6822F480722B
:101460000A60D3F8882042F47002C3F88820BFF3E2
:101470004F8FBFF36F8F002000F053F9052000F06D
:101480000FF9062000F00CF9072000F009F90920F7
:1014900000F006F90A2000F003F90D2000F000F931
:1014A0000F2000F0FDF8102000F0FAF8112000F0F5
:1014B000F7F81C2000F0F4F8FFF73AFE08BD00BF73
:1014C00000ED00E0003000400000000038B5194B8E
:1014D00019499C681A6822F480320A601A68D20797
:1014E0005BBF6FF07F4405225D685C605CBF9C6001
:1014F0001A60124B124A19684FF00003A0FB010159
:1015000054BF4FF08075013508F0A2F90D4AB0FBC9
:10151000F5F305FB13008442136098BF13680A4972
:101520009CBF64190133A4EB000498BF13600C60E6
:1015300038BD00BF10E000E0540A00206800002021
:1015400040420F006C000020580A002010B50B4AE2
:101550000B4C11602268002A0DDC08B9002010BD78
:10156000FFF7B4FF2368002BC1BF064A136843F09E
:1015700002031360F2E76FF00500F0E7500A002065
:101580006C00002010E000E010B5084C236823B187
:101590006FF00F00984700232360054B1A68054B36
:1015A0001A60054B4FF0FF321A6010BD500A002040
:1015B000540A002010E000E06C0000200B4B1B6878
:1015C000DB0310B506D50A4B1A68002A03DD1A683A
:1015D000013A1A6010BD074CFFF7D6FF2368002BB5
:1015E000F8D00020984700232360F3E710E000E0E4
:1015F0006C000020500A0020FFF7E0BF38B5114B07
:101600001A68002A0ADA104D2B6813B90024204604
:1016100038BD0020984700242C60F8E71C6874B996
:101620000A4B9A680A4B1B689A4208D8064DFFF786
:10163000ABFF2B68002BE9D020469847ECE76FF012
:101640000504E4E76C000020500A002010E000E0F0
:10165000580A002010B50F4C2268002A17DC68B128
:10166000FFF734FF0C4A2368002B08DC0B4B1B6888
:1016700091689942FCD8FFF787FF002010BD1368DE
:10168000DB0342BF236803F1FF332360EBE76FF016
:101690000500F3E76C00002010E000E0580A00208D
:1016A0001F284FF0804208D92038916CC0B2012326
:1016B00003FA00F0084390647047516A012303FA6B
:1016C00000F00843506270471F284FF0804309D94B
:1016D00020389A6CC0B2012101FA00F022EA000021
:1016E000986470475A6A012101FA00F022EA00006A
:1016F0005862704738B5002104464FF47A70FFF7FE
:1017000025FF4FF08045AB68234203D0FFF73CFF35
:10171000002038BDFFF772FF0630F4D06FF00900EB
:10172000F7E738B54FF0804303289D6841D006287D
:1017300029D0002847D19A68510316D54FF080422E
:10174000936823F4606393604FF40050FFF7D2FF77
:101750000446002834D04FF0804205F46065936859
:1017600023F460632B43936009E09A6842F480227B
:101770009A604FF08060FFF7BDFF0028DED06FF069
:101780000904204638BD9A68920307D54FF080427D
:10179000936823F4606343F44063D4E79A6842F4A7
:1017A00000329A604FF00070FFF7A4FF0028EDD0E0
:1017B000E5E79A6822F4606242F4C0629A60C3E787
:1017C000FFF714FEDDE76FF00204DAE71F2888BF99
:1017D00020384FF0010385BFC0B203FA00F003FACE
:1017E00000F04FF0804396BF4FF08043586458603C
:1017F000704700F052B800F053B800F053B800F052
:10180000EBBA00F051B800F051B800F051B80346FF
:1018100010B51A7A0068042A04D8DFE802F0061D21
:10182000202327006FF0020010BD5A684261426019
:101830000267C2675A7A012A1CD0022A24D0002AE1
:10184000F0D1026E596822EA010202665A68997A5A
:10185000FFF7DBFF0020E7E75A680261E7E75A6815
:101860008260E5E75A688260C266E2E75A684260D1
:10187000C266DFE7016E5A6811430166D0F8B810FE
:101880000A43C0F8B820E1E7016E5C6821430166B5
:10189000D0F8B82022EA0402F3E7406A0840704713
:1018A000C16170470162704781647047006C704786
:1018B00021B101290AD06FF002007047D0F8C03082
:1018C00023EA0202C0F8C02000207047D0F8C030E0
:1018D0001A43F7E708B50B4B984207D10B20FFF7E7
:1018E00075FF0920FFF7DCFE002008BD064B98427B
:1018F00004D10C20FFF76AFF0A20F3E76FF0020023
:10190000F3E700BF002004400030044070B50446F7
:101910000E461546FFF7DEFF08BB114B9C420BD16C
:101920001048FFF774FF0920FFF7CEFE314620462E
:10193000BDE8704000F03CB80B4B9C420DD1012D2E
:1019400007D0022D07D015B90848FFF760FF0A201D
:10195000EAE70748F9E70748F7E76FF0020070BDCC
:1019600000200440689D000000300440749D000089
:10197000809D00008C9D000000F044B800F0C2B8CB
:1019800000F014B900F02AB900F042B900F0AEB985
:1019900000F0C0B900F050BA00F05ABA00F0D0B967
:1019A00000F0E2B900F0E4B900F0E8B900F0FCB9E9
:1019B00070B50E4601210546FFF7F6FF0446F8B95B
:1019C00002212846FFF7F2FF0446C8B9082128463D
:1019D000FFF7D6FF044698B901462846FFF7D4FF23
:1019E000044668B901462846FFF7CCFF044638B9DB
:1019F0002B6843F001032B6031462846FFF7BCFFFC
:101A0000204670BD3C4B984230B407EE901A03D08C
:101A100003F5805398421FD103681B041CD4374B35
:101A20001B685B0807EE103AF8EE677AB8EEC77AE3
:101A30000422C7EE276A0823F7EE007A07EE103A71
:101A4000B8EEC76A86EE867AB4EEE77AF1EE10FA5F
:101A500006D55B10072B07DC6FF0020030BC704727
:101A6000013A4FEA4303E9D107EE903AB8EEE77A3C
:101A7000C6EE877ABDEEE77AF8EEC76A77EEE67AC9
:101A8000F0EE676AFEEEEC6A16EE902A032ACCBFEF
:101A9000033A0332202B26D006DC082B25D0102B4E
:101AA00025D06FF00700D9E7402B22D0802BF8D14A
:101AB00000234169124D1B0421F4403103F44033EB
:101AC0000B434361416917EE103A2940C3F30B04FD
:101AD000214341618369C2F30B022B401A4330BC9E
:101AE0008261FFF74BBF0223E3E70423E1E703230F
:101AF000DFE70123DDE700BF00200440680000208D
:101B000000F0FFFF03681B0447D4254B9FED257AA7
:101B10001B685B0806EE903A4369C3F30B0307EEBC
:101B2000903A8369F8EEE77AC3F30B0337EE877ACE
:101B300007EE903AF8EEE77AB0EE086AF4EEC67A6D
:101B4000F1EE10FAF0EE465A24DDB1EE085AF4EE4A
:101B5000C57AF1EE10FA1DD877EEC67A9FED126ABB
:101B60004369A7EE867A03F44033C3F107020123E9
:101B70009340F0EE477A07EE103AB8EEC77AF8EEE7
:101B8000E66A67EE277A86EEA77AFDEEC77A17EE49
:101B9000900A704777EEA57AE0E76FF00200704791
:101BA00068000020000000000000003C0A4B984242
:101BB00003D003F5805398420AD10539032907D889
:101BC000036823F4407343EA012101600020704759
:101BD0006FF00200704700BF002004400B4B98429A
:101BE00003D003F58053984202D121B1012908D0D6
:101BF0006FF002007047036823F4806303600020E5
:101C00007047036843F48063F8E700BF0020044096
:101C1000354B984203D003F58053984260D10C298C
:101C20005ED8DFE801F0070D25394D0D19252F3954
:101C3000434D5500036823F0020303600020704702
:101C4000036843F002030360036823F00C0303609E
:101C5000036823F01003F0E7036843F00203036016
:101C6000036823F00C030360036843F01003E4E708
:101C7000036843F002030360036823F00C0343F09E
:101C80000403E4E7036843F002030360036823F0FE
:101C90000C0343F00403E6E7036843F00203036028
:101CA000036823F00C0343F00803D0E7036843F014
:101CB00002030360036823F00C0343F00803D2E738
:101CC000036843F002030360036843F00C03BEE7BC
:101CD000036843F002030360036843F00C03C2E7A8
:101CE0006FF00200704700BF00200440084B98428C
:101CF00003D003F58053984204D18368DB0604D4F3
:101D0000C06970476FF0020070476FF00C007047B9
:101D100000200440094B984203D003F580539842B9
:101D200006D1836813F0800305D1C161184670475E
:101D30006FF0020070476FF00B0070470020044006
:101D4000F8B506460F46154600242B68A34202DC70
:101D50002C60002005E0395D3046FFF71DFE08B11C
:101D60002C60F8BD0134F0E78068C0F305207047AF
:101D70008068C0F30540C0F108007047094B9842E5
:101D800003D003F58053984209D14B1E072B06D888
:101D9000436823F03F0319434160002070476FF010
:101DA00002007047002004400A4B984203D003F51C
:101DB000805398420AD14B1E072B07D8436823F45F
:101DC0007C5343EA01214160002070476FF002001C
:101DD000704700BF0020044070B50546B0B11149FE
:101DE00011485822FFF792F900263046FFF70BFD05
:101DF000014604463046FFF704FD382303FB05F097
:101E00000A4E0B4D0644054414B970BD094EECE76B
:101E1000E30703D52B680BB1306898476408043694
:101E20000435F1E7989D0000D69D0000940A00203B
:101E30005C0A00200080004010B504462046FFF7F1
:101E4000AFFD0028FAD02046BDE81040FFF79EBD48
:101E500013B5044620460191FFF7A4FD019900281F
:101E6000F8D0204602B0BDE81040FFF791BD000059
:101E7000014B1868704700BF7000002008B50021B2
:101E8000044603F06DFE044B1868C36B03B198471A
:101E9000204607F047F800BFF49D000070B50D4ED6
:101EA0000D4D761BB61006D0002455F8043B0134C6
:101EB0009847A642F9D1094E094D761B08F0F0F873
:101EC000B61006D0002455F8043B01349847A642CA
:101ED000F9D170BD200A0020200A0020280A002025
:101EE000200A0020844641EA000313F003036DD169
:101EF000403A41D351F8043B40F8043B51F8043BCD
:101F000040F8043B51F8043B40F8043B51F8043BD3
:101F100040F8043B51F8043B40F8043B51F8043BC3
:101F200040F8043B51F8043B40F8043B51F8043BB3
:101F300040F8043B51F8043B40F8043B51F8043BA3
:101F400040F8043B51F8043B40F8043B51F8043B93
:101F500040F8043B51F8043B40F8043B51F8043B83
:101F600040F8043B51F8043B40F8043B51F8043B73
:101F700040F8043B403ABDD2303211D351F8043B13
:101F800040F8043B51F8043B40F8043B51F8043B53
:101F900040F8043B51F8043B40F8043B103AEDD2C2
:101FA0000C3205D351F8043B40F8043B043AF9D213
:101FB000043208D0D2071CBF11F8013B00F8013BE6
:101FC00001D30B8803806046704700BF082A13D3F3
:101FD0008B078DD010F003038AD0C3F10403D21A0B
:101FE000DB071CBF11F8013B00F8013B80D331F83F
:101FF000023B20F8023B7BE7043AD9D3013A11F8BF
:10200000013B00F8013BF9D20B7803704B78437029
:102010008B78837060467047F0B4860746D0541EB4
:10202000002A3CD0CAB2034601E0013C37D303F892
:10203000012B9D07F9D1032C2AD9CDB245EA0525FC
:102040000F2C45EA054534D9A4F1100222F00F0CFB
:1020500003F120071609674403F1100242E9045511
:1020600042E902551032BA42F8D1721C14F00C0F3A
:1020700003EB021204F00F0613D0331F23F0030307
:102080000433134442F8045B9342FBD106F003048B
:102090002CB1CAB21C4403F8012B9C42FBD1F0BC0A
:1020A000704734461346002CF3D1F8E71446034634
:1020B000C1E71A462646E0E70FB400B5074983B0EA
:1020C00004AB086853F8042B8168019301F0A4FE67
:1020D00003B05DF804EB04B0704700BF700000204F
:1020E0000EB430B59CB01FAB0C4C0D4D53F8042B07
:1020F0000193014602910691206802A96FF0004405
:10210000CDE90445079400F0EBF8029B00221A7019
:102110001CB0BDE8304003B0704700BF7000002025
:102120000802FFFF80EA0102844612F0030F4FD13C
:1021300011F0030F32D14DF8044D11F0040F51F896
:10214000043B0BD0A3F101329A4312F0803F04BF4D
:102150004CF8043B51F8043B16D100BF51F8044B36
:10216000A3F101329A4312F0803FA4F101320BD166
:102170004CF8043BA24312F0803F04BF51F8043BEB
:102180004CF8044BEAD023460CF8013B13F0FF0F48
:102190004FEA3323F8D15DF8044B704711F0010F7B
:1021A00006D011F8012B0CF8012B002A08BF70474C
:1021B00011F0020FBFD031F8022B12F0FF0F16BF43
:1021C0002CF8022B8CF8002012F47F4FB3D170470B
:1021D00011F8012B0CF8012B002AF9D1704700BF30
:1021E00000000000000000000000000000000000EF
:1021F00000000000000000000000000000000000DF
:1022000090F800F06DE9024520F007016FF0000C36
:1022100010F0070491F820F040F049804FF00004DE
:102220006FF00700D1E9002391F840F000F10800B9
:1022300082FA4CF2A4FA8CF283FA4CF3A2FA8CF3F1
:102240004BBBD1E9022382FA4CF200F10800A4FA58
:102250008CF283FA4CF3A2FA8CF3E3B9D1E90423AC
:1022600082FA4CF200F10800A4FA8CF283FA4CF3E3
:10227000A2FA8CF37BB9D1E9062301F1200182FA9D
:102280004CF200F10800A4FA8CF283FA4CF3A2FAA3
:102290008CF3002BC6D0002A04BF04301A4612BAB1
:1022A000B2FA82F2FDE8024500EBD2007047D1E9B4
:1022B000002304F00305C4F100004FEAC50514F043
:1022C000040F91F840F00CFA05F562EA05021CBF14
:1022D00063EA050362464FF00004A9E7000000002E
:1022E0002DE9F04F2DED068BCFB08B4617460893A6
:1022F000814604F05FFF036811931846FFF780FFE3
:10230000BBF80C3010901E0604D5DBF81030002B03
:1023100001F0188000239FED747BCDE92333CDE9D4
:102320001333CDE915330C931293049325AB229309
:1023300098463B788DED0E7B09EE10BA002B00F02D
:1023400059813C4604E014F8013F002B00F0A880BE
:10235000252BF8D1E51B40F0A6802378002B00F058
:102360004981002305938DF86B300293661C4FF072
:10237000FF33647803932B254FF0200A0136A4F134
:1023800020035A2B00F2B480DFE813F09402B2006D
:10239000B2008E02B200B200B2006A00B200B20017
:1023A000F2010302B200FD01A302B2009D025B0034
:1023B0005B005B005B005B005B005B005B005B0045
:1023C000B200B200B200B200B200B200B2004901E5
:1023D000B2009501C602490149014901B200B200AB
:1023E000B200B2008802B200B2000702B200B2002E
:1023F000B200A301B2007802B200B200BC07B20082
:10240000B200B200B200B200B200B200B2004901A4
:10241000B2009501C9014901490149013A02C901C6
:102420008400B2005B02B2004302B507640284007C
:10243000B200A3018200B807B200B2009307B20055
:102440008200A4F13003002216F8014B02EB820255
:1024500003EB4202A4F13003092BF5D905928EE774
:10246000484604F0A7FE436815931846FFF7C8FED8
:10247000034648461C46169304F09CFE826813925D
:1024800034B1139B23B1139B1B78002B41F0918136
:10249000347873E7029B347843F0200302936DE7AE
:1024A000E51B00F0A780DDE9233201332A44072B26
:1024B000CDE92332C8F80070C8F8045006DC08F1F2
:1024C0000808049A23782A44049247E719EE101A60
:1024D00022AA484605F016FE002841F0EF830DF1D0
:1024E0009408EEE7AFF30080000000000000000059
:1024F0000996002C7ED000231A464FF0010A8DF871
:10250000D4408DF86B30079203920A920D920B9291
:10251000CDF818A035AF029B029913F0020318BF43
:102520000AF1020A11F0840B05D10599A1EB0A0604
:10253000002E00F3B583249D72B1239A0132013538
:102540000DF16B000121072ACDE92325C8E900011F
:1025500000F3E58308F108086BB1239B01330235D2
:102560001BA90222072BCDE92335C8E9001200F38D
:10257000E58308F10808BBF1800F00F09B82039B04
:10258000069A9E1A002E00F3DD82029BDB0500F105
:102590003582239B069AC8F8007001331544072B37
:1025A0002495C8F80420239300F3598308F1080800
:1025B000029B590705D5059BA3EB0A04002C00F3E9
:1025C000CA83DDE904325245ACBF9B1853440493DF
:1025D000002D40F0F48200232393079B1BB1079941
:1025E000484604F0BFFC0DF19408099F3B78002B8E
:1025F0007FF4A7AE249B19EE10BA002B41F0B482F1
:10260000BBF80C3013F0400F049B18BF4FF0FF33A2
:10261000049304984FB0BDEC068BBDE8F08F089B87
:102620000996073323F00703B3EC027B8DED0E7B95
:10263000DDE90E56089326F000430AEE903A0AEEC2
:10264000105A5BEC1AABB04B504659464FF0FF3274
:1026500007F0C0F8002840F00B85AB4B4FF0FF327D
:102660005046594607F098F8002840F001850022AE
:1026700000232846314607F085F8002841F0718094
:102680009DF86B20A14FA24B029800214FF0030A46
:1026900020F0800007910290472CC8BF1F46CDF85C
:1026A00018A003910A910D910B91002A3FF433AFCA
:1026B0000AF1010A2FE7089B099653F8042B8DF8BD
:1026C000D42000210A464FF0010A08938DF86B10C0
:1026D00019E7089D099655F8047B00268DF86B6074
:1026E000002F00F03F86039A1346013300F0F28773
:1026F0003146384605F0A4F80790002801F04881DB
:10270000079B0396DA1B0692334622EAE27A089583
:102710009DF86B2007930A930D930B93C5E7029BDB
:1027200009969D0640F10181089B073323F00703BA
:102730001946F1E80223089192469B46002A73F15C
:102740000003C0F20381039B013300F06C85029B00
:1027500023F080055AEA0B0340F09182039B002B83
:1027600040F0948202950023039306934EAF18E144
:10277000089B53F8042B0592002A80F25684059A90
:10278000089352420592029B347843F0040302936B
:10279000F4E534788DF86B50F0E5029B099643F030
:1027A00010030293029B990640F10C84089B0733A7
:1027B00023F00703F3E802AB0893029B23F4806540
:1027C000002300228DF86B20039A1146013100F09E
:1027D000CD8025F0800102915AEA0B0140F04B8236
:1027E000002A40F02387002BBDD115F0010306938A
:1027F00000F01F8430238DF837310DF23717D0E009
:102800003478029B682C00F0968543F040030293D5
:10281000B4E5029B09969E0600F1F984029BDD0651
:1028200000F10A87029B5C0600F1D487029B9805A1
:1028300040F10287089B049953F8042B0893117008
:10284000D3E63478029B6C2C00F06E8543F01003C5
:10285000029393E5089B099647F6300153F8042B41
:10286000ADF86C10029908932A4B129341F00205BF
:1028700092464FF0000B02237824A2E7029B0996B0
:1028800043F01005AF0640F18D83089B073323F01A
:102890000703F3E802AB0893012392E7029B347825
:1028A00043F00803029369E5029B347843F0010387
:1028B000029363E59DF86B30002B7FF4E9AD34782B
:1028C0008DF86BA05AE5029B347843F080030293A5
:1028D00054E5324612F8014B2A2C01F07782A4F11C
:1028E0003003092B164698BF002201F2398116F8F1
:1028F000014B02EB820203EB4202A4F13003092BED
:10290000F5D903923BE500BFFFFFEF7FF89D000084
:10291000FC9D0000089E0000029B099643F01003F6
:102920000293029B9D063FF5FFAE029BD80640F145
:102930008A83089B53F8042B08934FEAE27B5B469B
:10294000002A73F100039246BFF6FDAE039A029D82
:10295000DAF1000A11464FF02D036BEB4B0B0131FE
:102960008DF86B304FF001037FF433AF012B00F093
:102970008681022B4EAF22D112984FEA1A130AF029
:102980000F0143EA0B734FEA1B129A469346435CCE
:1029900007F8013D5AEA0B03EFD14EABDB1B029562
:1029A00006930023039907930A930D930B93069BB9
:1029B0009DF86B208B42B8BF0B469A4675E64FEAEE
:1029C000DA0242EA4B724FEADB010AF007038B4658
:1029D000924630335AEA0B013A4607F8013DEED1F0
:1029E000E907DAD5302BD8D03023023A07F8013C7A
:1029F0004EAB9B1A029506931746D2E7652C40F31F
:102A0000EA80DDE90E010022002306F0B1FE002875
:102A100000F0E381239BD34AC8F80020013301353D
:102A20000122072BCDE92335C8F8042000F3C68521
:102A300008F108081C9B0C9A934280F2F182239BB8
:102A4000119AC8F80020109AC8F8042001331544E0
:102A5000072B2495239300F3598408F108080C9B55
:102A60005C1E002C7FF7A4AD102C239BDFF8FCB27A
:102A700040F3B5855F46102619EE10BA05E008F15F
:102A80000808103C102C40F3A98501331035072BA2
:102A9000CDE92335C8E90076F1DD22AA594648463A
:102AA00005F030FB002840F01D82DDE923350DF1F3
:102AB0009408E6E7059BA3EB0A06002E7FF75FADBF
:102AC000102E239ADFF8A4B229DD58462946A346E2
:102AD00019EE105A1023044604E0103E102E08F19F
:102AE000080818DD01321031072ACDE92321C8E991
:102AF0000043F2DD22AA2946484605F003FB0028E0
:102B000040F0EF81103E102EDDE923210DF19408F5
:102B10004FF01003E6DC23460D465C469B4601322F
:102B20003544072ACDE92325C8F800B0C8F8046069
:102B300000F36E85039B069A9E1A002E08F1080882
:102B40007FF723AD102E239ADFF820B229DD5846F7
:102B50002946A34619EE105A1023044604E0103EFD
:102B6000102E08F1080818DD01321031072ACDE9CE
:102B70002321C8E90043F2DD22AA2946484605F090
:102B8000C1FA002840F0AD81103E102EDDE923216E
:102B90000DF194084FF01003E6DC23460D465C4629
:102BA0009B4601323544072ACDE92325C8F800B0F9
:102BB000C8F8046000F3E88108F10808E5E419EEBC
:102BC000101A22AA484605F09DFA00283FF403ADEA
:102BD00019EE10BA86E10C9B239C012B40F38C81EB
:102BE000013401350123072CCDE92345C8F80070D5
:102BF000C8F8043000F3F88108F10808109B119A16
:102C000001341D44072CCDE92345C8E9002300F316
:102C1000F98108F108080023DDE90E01002206F021
:102C2000A7FD0C9B002840F08581013B0134013752
:102C30001D44072CCDE92345C8F80070C8F80430BE
:102C400000F36A8108F10808149A013415441EAB98
:102C5000072CCDE92345C8E900327FF7A7AC19EE70
:102C6000101A22AA484605F04DFA0028B0D1249D3A
:102C70000DF194089CE4012B029D7FF47AAEBBF128
:102C8000000F08BFBAF10A0F80F0D5820AF1300AAE
:102C900001238DF837A1029506930DF2371780E6D0
:102CA000102EDDE9232129DD179310254346084620
:102CB000B846274619EE104A04E0103E102E03F1E4
:102CC000080316DD013228491030072ACDE92320F8
:102CD000C3E90015F1DD22AA2146484605F012FAA3
:102CE000002840F05084103E102EDDE9232025AB53
:102CF000E8DC3C4647469846179B014601321A4895
:102D0000C8F800008D19072ACDE92325C8F804600A
:102D100000F327849DF86B2008F108080CE419EEF5
:102D2000101A22AA4846179305F0ECF900287FF400
:102D30004FAF249D179B0DF194080DE419EE101A66
:102D400022AA484605F0DEF900287FF441AF249D11
:102D50000DF194080FE4102C239B26DD19EE107A58
:102D600010260AE0389E00003C9E00004C9E0000A9
:102D7000103C102C08F1080817DD0133BA4A103551
:102D8000072BCDE92335C8E90026F1DD22AA394613
:102D9000484605F0B7F9002840F01E84103C102C7E
:102DA000DDE923350DF19408E7DC0133AE4AC8F8BC
:102DB00000202544072BCDE92335C8F804407FF7D0
:102DC00000AC19EE101A22AA484605F09BF900281B
:102DD0007FF4FEAE249DFFF7F4BB1C9A002A40F35B
:102DE0008A83DDE90B329342A8BF1346002B1C46B1
:102DF0000DDD239BC8F8007001332544072B249573
:102E0000C8F80440239300F35B8508F108080B9B86
:102E1000002CA8BF1B1B002B1C4600F3B3820B9B8E
:102E20003B449B46029B5E0500F1D3821C9B0C9A9F
:102E3000934203DB029AD40740F1C284239A11998A
:102E4000C8F800101099C8F8041001320D44072A80
:102E50002495239200F34F8508F108080C9ABC18BA
:102E6000A4EB0B04D31A9C42A8BF1C46002C0DDD1A
:102E7000239AC8F800B001322544072A2495C8F8DF
:102E80000440239200F35B8608F10808002CACBFD5
:102E90001C1B1C46002C7FF78BAB102C239BDFF8F0
:102EA000CCB140F39C835F46102619EE10BA05E0C2
:102EB00008F10808103C102C40F3908301331035C2
:102EC000072BCDE92335C8E90076F1DD22AA594662
:102ED000484605F017F928B9DDE923350DF19408C6
:102EE000E8E7AB46079B002B3FF48AAB07994846BF
:102EF00004F038F8FFF784BB029BD8073FF570AEAB
:102F0000013401350123072CCDE92345C8F80070B1
:102F1000C8F804307FF796AE19EE101A22AA484678
:102F200005F0F0F800287FF453AEDDE923450DF1FC
:102F3000940889E65E1E002E7FF786AE102EDFF81D
:102F40002CB140F3BD83CDF80CA0102719EE10AAC8
:102F500005E008F10808103E102E40F3AF8301345D
:102F60001035072CCDE92345C8E900B7F1DD22AAC9
:102F70005146484605F0C6F8002840F0FF85DDE9D7
:102F800023450DF19408E6E719EE101A22AA4846E7
:102F900005F0B8F800287FF41BAE249D0DF19408CD
:102FA000FFF7F3BA089AEE0652F8041B08924FF0A6
:102FB000010343D468063ED51FFA81FA4FF0000B97
:102FC000FFF7FFBB029BDA0600F11881029B5B064C
:102FD00040F18983089B53F8042B08931FFA82FA67
:102FE0004FF0000BFFF7E9BB19EE101A22AA484672
:102FF00005F088F800287FF4EBADDDE923450DF1FD
:103000009408FBE519EE101A22AA484605F07AF852
:1030100000287FF4DDADDDE923450DF19408FAE5E4
:10302000029BDF077FF5C4AA09E534780893FFF710
:10303000A5B94EAFB5E4AA0500F1D4838A464FF096
:10304000000BFFF7BEBB029B590640F16983089B4A
:1030500053F8042B08930FFA82FA4FEAEA7B5246A0
:103060005B46FFF76BBB00BF3C9E00004C9E000020
:10307000DDE90E0102460B4606F0ACFB05460028D2
:1030800040F00F86612C00F0C485412C00F0AD8427
:10309000039B24F020065A1C069600F0C683472E98
:1030A00000F0BC85DDE90E01029A002942F480722D
:1030B0000A924FF00003C0F2D28541EC180B17932F
:1030C0000793462E00F04384452E40F02384B0EE53
:1030D000480AF0EE680A039B20A95D1C1DABCDE9F0
:1030E00000312A461CAB0221484602F035FE074655
:1030F00005440A9BDDF808B0029351EC180B00223E
:10310000002306F035FB002800F0CE832B46DB1BA6
:103110000C93069B472B00F09983069B462B00F0EF
:1031200044841C9B0B930B9B069A013B412A1C93E6
:1031300000F0B185E2B20021002BB8BF0B9B8DF8E7
:103140007820BABFC3F101032D222B22092B8DF861
:10315000792040F3B9850DF1870EDFF85CC4754620
:103160008CFB0321DA17C2EBA10202EB8201A3EB75
:1031700041011E463031632E284605F8011C1346D6
:1031800005F1FF35ECDC3033DAB2831E9E4529466B
:1031900005F8012C40F23B860DF17A0301E011F8AD
:1031A000012B03F8012B8E45F9D10DF189030DF1A7
:1031B0007A021B1A13441EAA9B1A14930C9B149A8E
:1031C000012B1A44069240F3E385069B109A1344A0
:1031D000069300232BF480660A930D930B93069BB2
:1031E00046F48072029223EAE37A179B002B40F0A8
:1031F00054839DF86B200393FFF757BA089B53F84D
:10320000042B089392464FF0000BFFF7D6BA089BA9
:1032100053F8041B0893049BDD171A462B46C1E99B
:103220000023FFF7E2B9BBF1000F08BFBAF10A0FA4
:10323000029DFFF42BAD05F4806600230295CDF8C6
:103240001880139DA0464EAF34461E4609E006F096
:10325000FFFABBF1000F08BFBAF10A0F1FD3824675
:103260008B460A2200235046594606F0F1FA94464E
:103270000CF1300C07F801CC504659460A220023C5
:103280000136013F002CE2D095F800C06645DED142
:10329000FF2EDCD09B4508BF924580F067824EAB85
:1032A000DB1B44461395DDF818800C960693FFF758
:1032B00078BBBC4B09961293029B9F0640F1058197
:1032C000089B073323F00703F3E802AB0893029A45
:1032D000D0070AD55AEA0B0307D0302342F0020286
:1032E0008DF86D4002928DF86C30029B23F480655E
:1032F0000223FFF766BA0996FFF754BA029D0996B2
:10330000FFF7C0BAA84B09961293D5E719EE101A29
:1033100022AA484604F0F6FE00287FF459AC249D0A
:103320000DF19408FFF79BBB43F0200374780293E0
:103330000136FFF723B843F4007374780293013623
:10334000FFF71CB84021484603F0BAFFCBF8000055
:10335000CBF81000002800F044854023CBF814304F
:10336000FEF7D8BF039B0A97062B28BF06230397B7
:103370000D970B9707973A469A468C4F08950693F8
:10338000FFF793B9102C239BDFF824B240F3DB81C5
:103390002A4610265D4619EE10BA05E008F1080825
:1033A000103C102C40F3CD8101331032072BCDE9B6
:1033B0002332C8E90056F1DD22AA5946484604F0F6
:1033C000A1FE00287FF48EADDDE923320DF19408D3
:1033D000E6E70C9BCDF818A05E46DDF834B00B97FD
:1033E000FB1803934246DDF858A0139F0A9B19EE81
:1033F000108A2846BBF1000F2FD0002B30D1013F9F
:103400000BF1FF3B239B1599116001335044072BAF
:103410002490C2F804A0239362DC083203993B781D
:103420008C1B9C42A8BF1C46002C0BDD239B166006
:1034300001332044072B24905460239300F3DC8055
:103440003B780832002CACBF1C1B1C46002C0BDC4C
:103450001E440A9BBBF1000FCFD1002B00F0E88186
:103460000A9B013B0A93CDE7102C23991FDD102501
:103470000B4604E0103C102C02F1080216DD01336B
:103480004B491030072BCDE92330C2E90015F1DD9F
:1034900022AA4146484604F035FE002840F08681C5
:1034A000103C102CDDE9233025AAE8DC1946404BFE
:1034B00013604B1C2044072BCDE92330546000F3EC
:1034C0000D823B7808321E44C3E7029BDE065CD5C2
:1034D000089B53F8042B089392464FF0000BF6E636
:1034E00022AA4146484604F00DFE002840F05E81C5
:1034F000249825AA92E7239B2E49C8F8001001338F
:1035000001350121072BCDE92335C8F8041000F35C
:103510003F8108F10808002A40F09680029B0C9A2F
:1035200003F0010313433FF443A8239B119AC8F807
:103530000020109AC8F8042001331544072B249565
:10354000239300F3558108F108080C9A01331544C0
:10355000072BCDE92335C8E900727FF727A8FFF7CD
:103560007EBB19EE101A22AA4846179304F0CAFD32
:1035700000287FF42DAB9DF86B20249D179B0DF147
:103580009408FEF7D9BFA346ACE4029B5D0640F168
:10359000B980089B53F8042B08931FFA82FA4FF066
:1035A000000B94E6089E00001C9E0000309E000068
:1035B0004C9E0000389E00006766666619EE101A81
:1035C00022AA484604F09EFD00287FF401AB249D0A
:1035D0000DF19408FFF72EBABB4683E4BB460133D6
:1035E0002544072BC8F800B0CDE92335C8F80440BE
:1035F0007EF7DCAFFFF733BB22AA4146484604F012
:1036000081FD002840F0D2803B78249825AA19E754
:1036100019EE101A22AA484604F074FD00287FF41F
:10362000D7AA249D0DF19408FEF7A9BF012B029D96
:103630007FF49FA9FFF72ABB089B049953F8042B3A
:1036400011600893FEF7D1BF239B1199C8F80010B1
:103650001099C8F8041001330D44072B24952393C7
:1036600000F3C68008F10808002ABFF66EAF544286
:103670001032DFF8FCB680F2B5822A4610265D468D
:1036800019EE10BA05E008F10808103C102C40F3C0
:10369000A78201331032072BCDE92332C8E9005647
:1036A000F1DD22AA5946484604F02CFD00287FF49B
:1036B00019ACDDE923320DF19408E6E7DDF80CA042
:1036C00001343544072CCDE92345C8E900B67FF71E
:1036D000B9AA21E43846FEF793FD33460396024625
:1036E0000690FFF712B8029B13F4007F089B53F873
:1036F000042B089314BF5FFA82FA92464FF0000B36
:10370000FFF75BB8029B13F4007F089B53F8042B70
:10371000089314BF5FFA82FA92464FF0000BD6E589
:10372000029B13F4007F089B53F8042B3FF404A979
:103730004FFA82FA4FEAEA7B089352465B46FEF75D
:10374000FDBFAB46154601332544072BCDE9233594
:10375000C8F800B0C8F8044059DC08F10808FFF7C1
:103760005EBB2D228DF86B20FEF78CBF169B159942
:10377000FF1A1A46384604F091FC6B7803B1013504
:103780000A22002350465946002606F061F866E5F5
:1037900019EE101A22AA484604F0B4FC00287FF45F
:1037A00017AA1C9A249D0DF19408B4E6C346FFF7AE
:1037B00099BB029B347843F480630293FEF7DEBD2D
:1037C0000C9ABC18A4EB0B04D31A9C42A8BF1C464D
:1037D000FFF75CBB089B049953F8042B08931180F6
:1037E000FEF703BF5FFA81FA4FF0000BFEF7E9BF67
:1037F00019EE101A22AA484604F084FC00287FF42F
:10380000E7A9DDE923351C9A0DF194082CE719EEA0
:10381000101A22AA484604F075FC00287FF4D8A9A3
:10382000249D0DF19408FFF7FABA0623039339E4B7
:103830001397DDE90B73FB189E42B346DDF818A021
:103840000546904628BF9B46FFF7F0BA1C9B0B939A
:10385000DA1C02DB039A934204DD023C24F02003CD
:10386000069360E4DDE90B318B42C0F2B4801BF0BB
:10387000010F00F03882109A134406931BF4806FF6
:1038800003D00B9B002B00F33882069B672423EAAE
:10389000E37A00230A930D93A7E42D2200238DF8E9
:1038A0006B200393FEF704BF209BAB42BFF42FAC09
:1038B00030215A1C20921970209B9D42F9D826E491
:1038C00019EE101A22AA484604F01CFC00287FF4C6
:1038D0007FA9249D0DF19408FFF799BA22AA4146C9
:1038E000484604F00FFC00287FF460AF3B78249832
:1038F00025AA1E44ADE519EE101A22AA484604F086
:1039000001FC00287FF464A91C9B249D0DF1940800
:10391000FFF7A4BA20AA1DABCDE90032B0EE480AE9
:10392000F0EE680A039A1CAB0221484602F014FA32
:10393000472E07461AD1029BDA0700F122810A9A24
:10394000029247229B460692209BFFF7E0BB20AAEB
:103950001DABCDE90032B0EE480AF0EE680A039ADA
:103960001CAB0321484602F0F7F90746039B462E9D
:1039700007EB03057FF4BDAB3B78302B00F0FA81F9
:103980001C9BDDF808B01D440A9B0293FFF7B5BBF2
:10399000DDF80CA09DF86B20CDF818A003900895D9
:1039A0000A900D900B90FEF780BE1C9A0B92002A95
:1039B00040F3F78103990BF001030B4340F096812C
:1039C0000B9B069366241BF4806F40F09781069B47
:1039D00023EAE37A5DE70C9B109A9A180B9B0692F8
:1039E000002B40F3B0816724EDE730238DF86C3075
:1039F00058238DF86D30029B43F00205039B632B27
:103A000000F3E4800023079335AFDDE90E01029A4D
:103A1000029542F4817224F0200600290A9206964B
:103A2000C0F28280002341EC180B1793612C00F048
:103A30001881412C7FF445ABB0EE480AF0EE680ADD
:103A40001CA804F09DFA00224FF07F5351EC100B9C
:103A500005F026FC0022002382468B4605F088FEF6
:103A600008B101231C93BC4B0B93039B19973E4653
:103A700009EE909A0B9F18945D1ECDF8308003E0FC
:103A800005F076FE013D08BBB44B00225046594676
:103A900005F006FC8946804605F0B2FE044605F0B6
:103AA00095FB02460B464046494605F041FA17F899
:103AB00004C0B5F1FF3FB146824606F801CB8B4604
:103AC0004FF000024FF00003A846D9D1A44B199F34
:103AD0000022504659464546DDF83080CDE90C9429
:103AE000189C19EE909A05F06BFE002852D19C4B61
:103AF00050465946002205F03BFE10B10D9BD907F8
:103B000048D4002D2B4606DB01333344302206F81F
:103B1000012BB342FBD1F31B0C930A9BDDF808B0D9
:103B20000293FFF7F6BA0790DDE90E2303F1004395
:103B300008EE903A2D2308EE102A179376E719EE37
:103B4000101A22AA484604F0DDFA00287FF440A8A3
:103B50001C9B0C9A249DD31A0DF19408FFF796B97B
:103B600000230393FEF70BBC19EE101A484622AA55
:103B700004F0C8FABBF80C30FEF744BDD346FFF79B
:103B8000B1B9DDE902B3FD180A9B029347230693FE
:103B9000FFF7B3BA0C9B20930B9B16F8012CD97B33
:103BA0008A42334609D1302003F8010C209B5A1E6B
:103BB000209213F8012C9142F6D0392A0BBF0B9AB0
:103BC0000132927AD2B203F8012CA4E7591C48467C
:103BD00003F076FB0746002800F00F81079014E7FA
:103BE000AB46154601332544072BCDE92335C8E9FB
:103BF00000B47FF7A8AC19EE101A22AA484604F0C8
:103C000081FA00287EF4E4AFDDE923350DF1940854
:103C10009BE430238DF86C307823EAE6002B1A46BB
:103C200008BF01220F9B0392029A002B42F480727C
:103C30000A92FFF678AFDDE90EAB20AA1DABCDE905
:103C400000324BEC10AB039A17951CAB022148468F
:103C500002F082F84BEC18AB074607956BE607932A
:103C600062E71CA8B0EE480AF0EE680A04F088F992
:103C700000224FF07F5351EC100B05F011FB002296
:103C8000002382468B4605F073FD08B101231C9387
:103C9000344B0B93E9E604F10F02D2B20121FFF796
:103CA0004BBA0F9B304F002BB4BF2D229DF86B20D9
:103CB0002E4BB8BF8DF86B20FEF7E6BC19EE10BA9C
:103CC000BBF80C30FEF79EBC002967D130228DF87E
:103CD0007A200DF17B02303302F8013B1EABD31A80
:103CE0001493FFF76BBA0B9B0693C7E5109B02EB8F
:103CF000030A51440691662465E6672413990B78FC
:103D0000FF2B76D000250B9A284603E001300131C5
:103D1000FF2B08D0934206DAD21A4B78002BF5D14C
:103D20000B780135F4E713910B920D900A950A9ADE
:103D30000D9B06991344169A02FB0313069323EA7C
:103D4000E37AFFF752BAC3F101031A44069222EA5A
:103D5000E27A67249DE500BF1C9E00000000304011
:103D60000000E03F089E0000009E0000049E00004E
:103D70004C9E000051EC180B0022002305F0F8FCCB
:103D800000287FF4FDAD039BC3F101031C93F8E50C
:103D90001BF0010F3FF41DAAFFF717BA0DF17A02CD
:103DA00099E7039B0BF0010656EA030205D14FF099
:103DB000010ACDF818A066246BE5109A02F1010AF9
:103DC0005344069323EAE37A662462E5089B7478F9
:103DD00053F8041B0893164641EAE1720392FEF77A
:103DE000CDBA0C23C9F800304FF0FF330493FEF72F
:103DF00010BC00230A930D9399E719EE10BABBF893
:103E00000C3043F04003ABF80C30FEF7FBBB022351
:103E10001493FFF7D3B900BF2DE9F04F2DED068BBA
:103E2000CFB01C468B461746814603F0C3F90368A2
:103E3000089418461193FEF7E3F91090B9F1000FBA
:103E400004D0D9F83830002B00F00A82DBF8643057
:103E5000BBF90C2013F0010F93B202D1910540F190
:103E6000D5869E040AD4DBF8641042F4005321F492
:103E70000051ABF80C30CBF864109BB21D0740F139
:103E8000CA80DBF81020002A00F0C58003F01A0277
:103E90000A2A00F0CE8000239FED837BCDE92333F7
:103EA000CDE91333CDE915330C931293049325AB6D
:103EB000229398463B788DED0E7B09EE10BA002BCD
:103EC00000F078813C4604E014F8013F002B00F03C
:103ED000C980252BF8D1E51B40F0C7802378002B43
:103EE00000F06881002305938DF86B300293661C07
:103EF0004FF0FF33647803932B254FF0200A0136EF
:103F0000A4F120035A2B00F2D380DFE813F07802EB
:103F1000D100D1007202D100D100D1006A00D100DD
:103F2000D10010022102D1001B025802D10052021E
:103F30005B005B005B005B005B005B005B005B00A9
:103F40005B00D100D100D100D100D100D100D1005F
:103F50005D01D100B30190025D015D015D01D10001
:103F6000D100D100D1008A02D100D100E902D100F4
:103F7000D100D100C101D1002502D100D10021081A
:103F8000D100D100D100D100D100D100D100D100A9
:103F90005D01D100B301E7015D015D015D01FE023C
:103FA000E701AD01D1008102D1001B03170807030F
:103FB000AD01D100C10182001308D100D100F20788
:103FC000D1008200A4F13003002216F8014B02EB6D
:103FD000820203EB4202A4F13003092BF5D90592CA
:103FE0008EE7484603F0E6F8436815931846FEF757
:103FF00007F9034648461C46169303F0DBF882682F
:10400000139234B1139B23B1139B1B78002B41F007
:10401000D980347873E75946484601F02FFD0028CF
:1040200041F07483BBF80C3003F01A020A2A7FF4C3
:1040300032AFBBF90E20002AFFF62DAFDBF864206B
:10404000D20702D49E0541F1918123463A46594652
:10405000484601F0D1FC049004984FB0BDEC068BAB
:10406000BDE8F08FE51B00F0A580DDE923320133C8
:104070002A44072BCDE92332C8F80070C8F8045051
:1040800006DC08F10808049A23782A44049226E7FB
:1040900019EE101A22AA484604F0ECF8002841F064
:1040A0004D840DF19408EEE70000000000000000D0
:1040B0000996002C7ED000231A464FF0010A8DF895
:1040C000D4408DF86B30079203920A920D920B92B6
:1040D000CDF818A035AF029B029913F0020318BF68
:1040E0000AF1020A11F0840B05D10599A1EB0A0629
:1040F000002E00F3D483249D72B1239A013201353E
:104100000DF16B000121072ACDE92325C8E9000143
:1041100000F3058408F108086BB1239B01330235D5
:104120001BA90222072BCDE92335C8E9001200F3B1
:10413000068408F10808BBF1800F00F09682039B0B
:10414000069A9E1A002E00F3D882029BDE0500F12B
:104150003082239B069AC8F8007001331544072B60
:104160002495C8F80420239300F32D8308F1080850
:10417000029B5C0705D5059BA3EB0A04002C00F30A
:10418000EC83DDE904325245ACBF9B1853440493E1
:10419000002D40F0EF8200232393079B1BB107996A
:1041A000484602F0DFFE0DF19408099F3B78002B92
:1041B0007FF488AE249B19EE10BA002B40F0F887EC
:1041C0000023239300F08FBC089B0996073323F04C
:1041D0000703B3EC027B8DED0E7BDDE90E560893F1
:1041E00026F000430AEE903A0AEE105A5BEC1AAB46
:1041F000B84B504659464FF0FF3205F0EBFA002815
:1042000040F05285B34B4FF0FF325046594605F00F
:10421000C3FA002840F04885002200232846314692
:1042200005F0B0FA002841F09A819DF86B20AA4F62
:10423000AA4B029800214FF0030A20F0800007915A
:104240000290472CC8BF1F46CDF818A003910A91D1
:104250000D910B91002A3FF43EAF0AF1010A3AE7B3
:10426000484602F0E3FDF1E5029B347843F0200379
:10427000029344E6089B099653F8042B8DF8D4204A
:1042800000210A464FF0010A08938DF86B101AE7D7
:10429000089D099655F8047B00268DF86B60002F69
:1042A00000F08486039A1346013300F02E873146CE
:1042B000384603F0C5FA0790002801F0E281079B19
:1042C0000396DA1B0692334622EAE27A08959DF8B5
:1042D0006B2007930A930D930B93BBE7029B099600
:1042E0009D0640F1AD80089B073323F00703194674
:1042F000F1E80223089192469B46002A73F10003DD
:10430000C0F2AF80039B013300F0AD85029B23F028
:1043100080055AEA0B0340F0B182039B002B40F06A
:10432000B48202950023039306934EAFC3E0089B2B
:1043300053F8042B0592002A80F27184059A0893A1
:1043400052420592029B347843F004030293D6E56F
:1043500034788DF86B50D2E5029B099643F0100536
:10436000AF0640F12984089B073323F00703F3E8E5
:1043700002AB0893012300228DF86B20039A1146AB
:1043800001317DD025F0800102915AEA0B0140F005
:104390007182002A40F08686002BC3D115F00103FC
:1043A000069300F06B8430238DF837310DF2371708
:1043B00081E0029B347843F0800302939FE532460C
:1043C00012F8014B2A2C01F0F182A4F13003092BE1
:1043D000164698BF002201F2928116F8014B02EBBB
:1043E000820203EB4202A4F13003092BF5D90392B8
:1043F00086E5029B347843F0010302937FE59DF844
:104400006B30002B7FF405AE34788DF86BA076E529
:104410003478029B6C2C00F0C28543F010030293A9
:104420006DE5029B347843F00803029367E5029B35
:10443000099643F010030293029B9D063FF553AF8C
:10444000029BD80640F1F684089B53F8042B08938E
:104450004FEAE27B5B46002A73F100039246BFF607
:1044600051AF039A029DDAF1000A11464FF02D0375
:104470006BEB4B0B01318DF86B304FF0010381D1A9
:10448000012B00F0FB81022B4EAF73D112984FEA43
:104490001A130AF00F0143EA0B734FEA1B129A46F4
:1044A0009346435C07F8013D5AEA0B03EFD14EAB4C
:1044B000DB1B029506930023039907930A930D9340
:1044C0000B93069B9DF86B208B42B8BF0B469A4618
:1044D000C0E600BFFFFFEF7FF89D0000FC9D0000DD
:1044E000029B099643F010030293029B990640F148
:1044F0007783089B073323F00703F3E802AB0893A5
:10450000029B23F48065002335E73478029B682CF6
:1045100000F03E8543F040030293F0E4089B0996C7
:1045200047F6300153F8042BADF86C10029908934C
:10453000CD4B129341F0020592464FF0000B02233F
:10454000782418E7029B09969E0600F1A183029B3E
:10455000DD0600F1AD85029B5C0600F14986029BF9
:10456000980540F1A585089B049953F8042B0893FE
:1045700011701AE64FEADA0242EA4B724FEADB01A7
:104580000AF007038B46924630335AEA0B013A464B
:1045900007F8013DEED1E90789D5302B87D03023CC
:1045A000023A07F8013C4EAB9B1A02950693174658
:1045B00081E7652C40F31381DDE90E010022002321
:1045C00005F0D6F8002800F00482239BA74AC8F81B
:1045D0000020013301350122072BCDE92335C8F82E
:1045E000042000F3418508F108081C9B0C9A9342B3
:1045F00080F20783239B119AC8F80020109AC8F80C
:10460000042001331544072B2495239300F3B2842F
:1046100008F108080C9B5C1E002C7FF7A9AD102C3C
:10462000239BDFF84CB240F330855F46102619EE2D
:1046300010BA05E008F10808103C102C40F324855E
:1046400001331035072BCDE92335C8E90076F1DDBC
:1046500022AA5946484603F00DFE002840F03E824B
:10466000DDE923350DF19408E6E7059BA3EB0A0687
:10467000002E7FF764AD102E239ADFF8F4B129DD08
:1046800058462946A34619EE105A1023044604E062
:10469000103E102E08F1080818DD01321031072AEB
:1046A000CDE92321C8E90043F2DD22AA2946484684
:1046B00003F0E0FD002840F01082103E102EDDE9EE
:1046C00023210DF194084FF01003E6DC23460D463C
:1046D0005C469B4601323544072ACDE92325C8F8BC
:1046E00000B0C8F8046000F33784039B069A9E1A52
:1046F000002E08F108087FF728AD102E239ADFF866
:1047000070B129DD58462946A34619EE105A1023E8
:10471000044604E0103E102E08F1080818DD0132AE
:104720001031072ACDE92321C8E90043F2DD22AA8E
:104730002946484603F09EFD002840F0CE81103EF9
:10474000102EDDE923210DF194084FF01003E6DC73
:1047500023460D465C469B4601323544072ACDE987
:104760002325C8F800B0C8F8046000F3178208F1E8
:104770000808EAE419EE101A22AA484603F07AFD66
:1047800000283FF408AD19EE10BAA7E1239B119958
:10479000C8F800101099C8F8041001330D44072B15
:1047A0002495239300F3D28508F10808002AC0F26B
:1047B000C7870C9A01331544072BCDE92335C8E987
:1047C00000727FF7D3AC19EE101A22AA484603F004
:1047D00051FD0028D7D1249D0DF19408C8E40C9B0D
:1047E000239C012B40F39281013401350123072CD6
:1047F000CDE92345C8F80070C8F8043000F3F18310
:1048000008F10808109B119A01341D44072CCDE9CA
:104810002345C8E9002300F3F28308F108080023C8
:10482000DDE90E01002204F0A3FF0C9B002840F0FC
:104830008B81013B013401371D44072CCDE9234511
:10484000C8F80070C8F8043000F3708108F1080857
:10485000149A013415441EAB072CCDE92345C8E951
:1048600000327FF783ACAEE7089E0000389E000060
:104870006C9E0000012B029D7FF405AEBBF1000F82
:1048800008BFBAF10A0F80F0F6820AF1300A01235C
:104890008DF837A1029506930DF237170BE6102E0F
:1048A000DDE9232129DD1793102543460846B84644
:1048B000274619EE104A04E0103E102E03F10803BB
:1048C00016DD0132C4491030072ACDE92320C3E99F
:1048D0000015F1DD22AA2146484603F0CBFC002852
:1048E00040F0B483103E102EDDE9232025ABE8DC38
:1048F0003C4647469846179B01460132B648C8F8E1
:1049000000007518072ACDE92325C8F8046000F3D4
:104910008B839DF86B2008F10808FFF7EDBB19EEBB
:10492000101A22AA4846179303F0A4FC00287FF42B
:104930002AAF249D179B0DF19408FFF7EDBB19EEEC
:10494000101A22AA484603F095FC00287FF41BAFFA
:10495000249D0DF19408FFF7EEBB102C239B20DD66
:1049600019EE107A102604E0103C102C08F108080B
:1049700017DD0133984A1035072BCDE92335C8E9F7
:104980000026F1DD22AA3946484603F073FC0028D0
:1049900040F07883103C102CDDE923350DF19408AC
:1049A000E7DC01338C4AC8F800202544072BCDE909
:1049B0002335C8F804407FF7E4AB19EE101A22AA99
:1049C000484603F057FC00287FF4DDAE249DFFF736
:1049D000D8BB1C9A002A40F32681DDE90B329342B2
:1049E000A8BF1346002B1C460DDD239BC8F80070A2
:1049F00001332544072B2495C8F80440239300F382
:104A0000D98508F108080B9B002CA8BF1B1B002BA5
:104A10001C4600F355830B9B3B449B46029B590568
:104A200000F104851C9B0C9A934203DB029AD20787
:104A300040F1CF83239A1199C8F800101099C8F853
:104A4000041001320D44072A2495239200F3E985CE
:104A500008F108080C9ABC18A4EB0B04D31A9C426A
:104A6000A8BF1C46002C0DDD239AC8F800B0013207
:104A70002544072A2495C8F80440239200F32E8683
:104A800008F10808002CACBF1C1B1C46002C7FF74B
:104A90006FAB102C239BDFF844B140F3F6825F46E6
:104AA000102619EE10BA05E008F10808103C102C89
:104AB00040F3EA8201331035072BCDE92335C8E9ED
:104AC0000076F1DD22AA5946484603F0D3FB28B907
:104AD000DDE923350DF19408E8E7AB46079911B1FC
:104AE000484602F03FFADBF8643013F0010FBBF8E0
:104AF0000C3002D1980540F19082590600F11286DF
:104B000004984FB0BDEC068BBDE8F08F029BDE072A
:104B10003FF56AAE013401350123072CCDE9234569
:104B2000C8F80070C8F804307FF790AE19EE101A7C
:104B300022AA484603F09EFB00287FF424AEDDE95C
:104B400023450DF1940883E65E1E002E7FF780AEAC
:104B5000102EDFF888B040F3E382CDF80CA01027C8
:104B600019EE10AA05E008F10808103E102E40F3D7
:104B7000D58201341035072CCDE92345C8E900B7AB
:104B8000F1DD22AA5146484603F074FB002840F0AC
:104B9000BA85DDE923450DF19408E6E719EE101A10
:104BA00022AA484603F066FB00287FF4ECAD249D62
:104BB0000DF19408FFF7C9BA089AEE0652F8041BE3
:104BC00008924FF001035ED4680659D51FFA81FAA6
:104BD0004FF0000BFFF7CFBB5C9E00006C9E000007
:104BE000029BDA0600F13681029B5B0640F1B0823F
:104BF000089B53F8042B08931FFA82FA4FF0000B1E
:104C00007EE4029BD8077FF5B3AAF3E4DBF85800F3
:104C100002F0D8FABBF90C2093B2FFF722B934782E
:104C20000893FFF76CB9239BC649C8F800100133FD
:104C300001350121072BCDE92335C8F8041000F315
:104C40009B8408F10808002A7FF4A0AD029B0C9A0F
:104C500003F0010313433FF48BAA239B119AC8F876
:104C60000020109AC8F8042001331544072B24951E
:104C7000239300F36B8308F108089AE54EAF1AE41A
:104C8000AA0500F1AF828A464FF0000BFFF773BB15
:104C9000089B53F8041B0893049BDD171A462B4608
:104CA000C1E90023FFF781BADDE90E0102460B4698
:104CB00004F090FD0546002840F03086612C00F09D
:104CC000A485412C00F0A282039B24F020065A1CEC
:104CD000069600F0C085472E00F09C85DDE90E01A8
:104CE000029A002942F480720A924FF00003C0F247
:104CF000E58541EC180B17930793462E00F0A0842E
:104D0000452E40F07184B0EE480AF0EE680A039B2D
:104D100020A95D1C1DABCDE900312A461CAB022148
:104D2000484601F019F8074605440A9BDDF808B02B
:104D3000029351EC180B0022002304F019FD002807
:104D400000F056832B46DB1B0C93069B472B00F091
:104D50002183069B462B00F0A1841C9B0B930B9B8D
:104D6000069A013B412A1C9300F0A285E2B2002181
:104D7000002BB8BF0B9B8DF87820BABFC3F101039D
:104D80002D222B22092B8DF8792040F382850DF1FD
:104D9000870EDFF8B8C175468CFB0321DA17C2EB2A
:104DA000A10202EB8201A3EB41011E463031632ECA
:104DB000284605F8011C134605F1FF35ECDC3033BD
:104DC000DAB2831E9E45294605F8012C40F2F9858A
:104DD0000DF17A0301E011F8012B03F8012B8E4548
:104DE000F9D10DF189030DF17A021B1A13441EAAA1
:104DF0009B1A14930C9B149A012B1A44069240F3AD
:104E0000AF85069B109A1344069300232BF480660B
:104E10000A930D930B93069B46F48072029223EA49
:104E2000E37A179B002B40F0DC829DF86B20039304
:104E3000FFF710BA029B590640F19981089B53F87D
:104E4000042B08930FFA82FA4FEAEA7B52465B463C
:104E5000FFF753BA089B53F8042B089392464FF080
:104E6000000BFFF74DBBBBF1000F08BFBAF10A0FF3
:104E7000029DFFF40AAD05F4806600230295CDF88B
:104E80001880139DA0464EAF34461E4609E004F03C
:104E9000DFFCBBF1000F08BFBAF10A0F1FD3824637
:104EA0008B460A2200235046594604F0D1FC944612
:104EB0000CF1300C07F801CC504659460A22002369
:104EC0000136013F002CE2D095F800C06645DED1E6
:104ED000FF2EDCD09B4508BF924580F095824EABFB
:104EE000DB1B44461395DDF818800C960693FFF7FC
:104EF000E2BA154B09961293029B9F0666D5089B52
:104F0000073323F00703F3E802AB0893029AD007B4
:104F10000AD55AEA0B0307D0302342F002028DF87B
:104F20006D4002928DF86C30029B23F48065022361
:104F3000FFF721BA029D0996FFF712BA0996FFF70B
:104F4000D4BA00BF389E0000089E000067666666FF
:104F5000AB4B09961293CFE719EE101A22AA4846D6
:104F600003F088F900287FF40EAC249D0DF194081D
:104F7000FFF7E5B819EE101A22AA484603F07AF9AD
:104F800000287FF400AC249D0DF19408FFF742BB8C
:104F900043F40073747802930136FEF7B0BF43F018
:104FA0002003747802930136FEF7A9BF039B0A978A
:104FB000062B28BF062303970D970B9707973A46B2
:104FC0009A46904F08950693FFF744B9029BDE0678
:104FD0003ED5089B53F8042B089392464FF0000BE4
:104FE00094E719EE101A22AA484603F043F9002864
:104FF0007FF4C9ABDDE923450DF1940802E419EE15
:10500000101A22AA484603F035F900287FF4BBABFA
:10501000DDE923450DF1940801E4DBF8580002F0C6
:10502000D3F8BBF80C3068E519EE101A22AA4846EE
:10503000179303F01FF900287FF4A5AB9DF86B20B0
:10504000249D179B0DF19408FFF756B8A34645E53C
:10505000029B5D066ED5089B53F8042B08931FFA3C
:1050600082FA4FF0000B51E719EE101A22AA4846B7
:1050700003F000F900287FF486AB249D0DF194081D
:10508000FFF7B3BABB4629E5BB4601332544072BDE
:10509000C8F800B0CDE92335C8F804407FF766A80A
:1050A000FFF791BB012B029D7FF4EDA9FFF7EDBB4C
:1050B000089B049953F8042B11600893FFF775B807
:1050C000102C239BDFF840B164DD2A4610265D4694
:1050D00019EE10BA04E008F10808103C102C57DD56
:1050E00001331032072BCDE92332C8E90056F2DD37
:1050F00022AA5946484603F0BDF800287FF4EEACDA
:10510000DDE923320DF19408E7E73846FDF778F83A
:105110003346039602460690FFF7D6B8DDF80CA09A
:1051200001343544072CCDE92345C8E900B67FF7A3
:105130008DABFBE4029B13F4007F089B53F8042B18
:10514000089314BF5FFA82FA92464FF0000BDDE637
:10515000029B13F4007F089B53F8042B089314BFA1
:105160005FFA82FA92464FF0000BFFF7C9B9029B33
:1051700013F4007F089B53F8042B3FF468A94FFAFF
:1051800082FA4FEAEA7B089352465B46FFF7B5B8CE
:10519000AB46154601332544072BCDE92335C8F826
:1051A00000B0C8F8044000F3E78008F1080832E4D2
:1051B00019EE101A484622AA03F05CF800283EF4C3
:1051C000FFAF90E4029B347843F480630293FEF7D0
:1051D00096BE0C9ABC18A4EB0B04D31A9C42A8BF31
:1051E0001C464FE45FFA81FA4FF0000BFFF7C3B89B
:1051F000089B049953F8042B08931180FEF7D5BF40
:105200001C9E0000309E00006C9E000030238DF834
:105210006C3058238DF86D30029B43F00205039BE0
:10522000632B00F3CC820023079335AFDDE90E0139
:10523000029A029542F4817224F0200600290A9213
:105240000696C0F2AC81002341EC180B1793612C39
:1052500000F00583412C7FF450ADB0EE480AF0EE2B
:10526000680A1CA802F08CFE00224FF07F5351EC1C
:10527000100B04F015F80022002382468B4604F040
:1052800077FA08B101231C93B74B0B93039B199733
:105290003E4609EE909A0B9F18945D1ECDF834801F
:1052A00003E004F065FA013D08BBB04B0022504614
:1052B000594603F0F5FF8946804604F0A1FA0446FA
:1052C00003F084FF02460B464046494603F030FE99
:1052D00017F804C0B5F1FF3FB046824606F801CB8F
:1052E0008B464FF000024FF00003A946D9D1A04BE6
:1052F000CDF83080002250465946DDF83480199FA1
:105300000D944D46189C19EE909A04F059FA002815
:1053100040F05F82964B50465946002204F028FA2E
:1053200018B10D9BD90700F15482002D2B4606DBE6
:1053300001333344302206F8012BB342FBD1F31B77
:105340000C930A9BDDF808B00293FEE419EE101AE4
:1053500022AA484602F08EFF00287FF414AADDE955
:1053600023351C9A0DF19408FFF720BADBF858009A
:1053700001F02AFFFEF769BE19EE101A22AA48466C
:1053800002F078FF00287FF4FEA9249D0DF1940817
:10539000FFF741BB1C9B0B93DA1C02DB039A934281
:1053A00004DD023C24F020030693D8E4DDE90B3150
:1053B0008B42C0F289811BF0010F00F0BC82109A71
:1053C000134406931BF4806F03D00B9B002B00F358
:1053D0007782069B672423EAE37A00230A930D93DE
:1053E0001FE52D2200238DF86B200393FEF735BFB8
:1053F000209BAB42BFF4A7AC30215A1C20921970FD
:10540000209B9D42F9D89EE4169B1599FF1A1A46D7
:10541000384602F043FE6B7803B101350A220023BF
:1054200050465946002604F013FA38E50C9BCDF897
:1054300018A05E46DDF834B00B97FB180393424684
:10544000DDF858A0139F0A9B19EE108A2846BBF17D
:10545000000F2ED0002B6BD1013F0BF1FF3B239BA4
:105460001599116001335044072B2490C2F804A011
:10547000239361DC083203993B788C1B9C42A8BFC4
:105480001C46002C0ADD239B166001332044072BA9
:1054900024905460239358DC3B780832002CACBF36
:1054A0001C1B1C46002C14DC1E440A9BBBF1000F85
:1054B000D0D1002B3CD11397DDE90B73FB189E4232
:1054C000B346DDF818A09046054628BF9B46FFF777
:1054D000A9BA102C23991EDD10250B4604E0103CC0
:1054E000102C02F1080215DD013322491030072B80
:1054F000CDE92330C2E90015F1DD22AA4146484634
:1055000002F0B8FE002846D1103C102CDDE9233013
:1055100025AAE9DC1946174B13604B1C2044072BC6
:10552000CDE92330546053DC3B7808321E44BCE79D
:105530000A9B013B0A9392E722AA4146484602F0A1
:1055400099FE40BB249825AA95E722AA41464846E1
:1055500002F090FEF8B93B78249825AA9EE72D2208
:105560008DF86B20FEF763BE1C9E000000003040EB
:105570000000E03F6C9E000019EE101A22AA484677
:1055800002F078FE00287FF4FEA81C9A249D0DF1FD
:105590009408FFF758BBC346FFF7A0BA0790DDE9B0
:1055A0000E2303F1004308EE903A2D2308EE102A53
:1055B00017934CE619EE101A22AA484602F05AFE3A
:1055C00000287FF4E0A8249D0DF19408FFF71BBA92
:1055D00022AA4146484602F04DFE0028DBD13B7826
:1055E000249825AA1E4460E720AA1DABCDE900320D
:1055F000B0EE480AF0EE680A039A1CAB0221484656
:1056000000F0AAFB472E074629D1029BDA0700F1DA
:105610008E800A9A029247229B460692209BFFF7B1
:1056200092BB19EE101A22AA484602F023FE002867
:105630007FF4A9A81C9B249D0DF19408FFF70ABADA
:1056400020AA1DABCDE90032B0EE480AF0EE680AA0
:10565000039A1CAB0321484600F07EFB0746039BE0
:10566000462E07EB03057FF460AB3B78302B00F050
:1056700069811C9BDDF808B01D440A9B0293FFF76B
:1056800058BBDDF80CA09DF86B20CDF818A0039056
:1056900008950A900D900B90FEF7DCBD1C9A0B92BA
:1056A000002A40F36E8103990BF001030B4340F095
:1056B0002E810B9B069366241BF4806F40F00181C2
:1056C000069B23EAE37A88E60C9B109A9A180B9BB8
:1056D0000692002B40F34A816724EDE719EE101A79
:1056E00022AA484602F0C6FD00287FF44CA81C9B65
:1056F0000C9A249DD31A0DF19408FFF7C3B9002327
:105700000393FEF7FDBBD346FFF7E8B9DBF864303F
:10571000D80707D4BBF80C30990503D4DBF8580040
:1057200001F052FD4FF0FF330493FFF7E9B9DDE9D3
:1057300002B3FD180A9B029347230693FFF7F9BAB9
:1057400054421032DFF8ACB221DA2A4610265D4608
:1057500019EE10BA04E008F10808103C102C14DD12
:1057600001331032072BCDE92332C8E90056F2DDB0
:1057700022AA5946484602F07DFD00287FF4AEA9D2
:10578000DDE923320DF19408E7E7AB461546013316
:105790002544072BCDE92335C8E900B47FF76BAA70
:1057A00019EE101A22AA484602F064FD00287EF481
:1057B000EAAFDDE923350DF19408FEF7FABF591C75
:1057C000484601F07DFD0746002800F0FE80079066
:1057D0002CE50C9B20930B9B16F8012CD97B8A425D
:1057E000334609D1302003F8010C209B5A1E209229
:1057F00013F8012C9142F6D0392A0BBF0B9A0132D3
:10580000927AD2B203F8012C99E530238DF86C30EE
:105810007823FFE4002B1A4608BF01220F9B039256
:10582000029A002B42F480720A92FFF6B7AEDDE9CD
:105830000EAB20AA1DABCDE900324BEC10AB039AA6
:1058400007951CAB0221484600F086FA4BEC18ABDA
:1058500007461795D9E606230393FFF73FBA1CA81E
:10586000B0EE480AF0EE680A02F08AFB00224FF020
:105870007F5351EC100B03F013FD002200238246EE
:105880008B4603F075FF08B101231C93564B0B9315
:10589000FCE4002972D130228DF87A200DF17B02D0
:1058A000303302F8013B1EABD31A1493FFF7A2BAB0
:1058B00004F10F02D2B20121FFF75ABA07936EE644
:1058C000672413990B78FF2B00F0898000250B9A31
:1058D000284603E001300131FF2B08D0934206DA5D
:1058E000D21A4B78002BF5D10B780135F4E71391E0
:1058F0000B920D900A950A9A0D9B06991344169ADD
:1059000002FB0313069323EAE37AFFF78ABA109B9C
:1059100002EB030A514406916624CDE60F9B334FF8
:10592000002BB4BF2D229DF86B20314BB8BF8DF8F2
:105930006B20FEF77EBC0B9B069343E519EE10BA75
:10594000FFF7D1B851EC180B0022002303F010FF31
:1059500000287FF48EAE039BC3F101031C9389E6FC
:105960001BF0010F3FF451AAFFF74BBAC3F101033B
:105970001A44069222EAE27A67242EE50DF17A02B1
:105980008EE7039B0BF0010656EA030205D14FF0A8
:10599000010ACDF818A066241FE5109A02F1010A49
:1059A0005344069323EAE37A662416E5089B747849
:1059B00053F8041B0893164641EAE1720392FEF77E
:1059C0009EBA02231493FFF715BA19EE10BABBF86A
:1059D0000C3043F04003ABF80C30FFF784B80023E1
:1059E0000A930D9387E700BF089E0000009E000009
:1059F000049E00006C9E0000F0B50C468989656E1F
:105A0000B4F80EC0E769ADF2744D21F0020106460C
:105A1000ADF814100020616A1B950B911CAD4FF47A
:105A20008061089018A8CDE90032ADF816C0029543
:105A3000069504910791099701F0C0FBDDE900325A
:105A400002A93046FEF7E8F9051E07DB304602A939
:105A500001F090F9002818BF4FF0FF35BDF8143061
:105A60005B0603D5A38943F04003A381189801F096
:105A7000A7FB28460DF2744DF0BD00BF38B5324B80
:105A80001B6805460C4613B19A6B002A3CD0B4F94A
:105A90000C3018079AB20CD52169A9B112F0010097
:105AA00022D0606900254042A061A56011B30020AA
:105AB00038BDD10640D552072AD4216943F00803E6
:105AC000A3819AB20029E9D102F42070B0F5007FD9
:105AD000E4D02846214601F0A7FBB4F90C30216937
